:020000040800F2
:1000000060060020C5010008CD010008CF010008EE
:10001000D1010008D3010008D5010008000000004C
:10002000000000000000000000000000D7010008F0
:10003000D901000800000000DB010008DD01000814
:10004000DF010008DF010008DF010008DF01000810
:10005000DF010008DF010008DF010008DF01000800
:10006000DF010008DF010008DF010008DF010008F0
:10007000DF010008DF010008DF010008DF010008E0
:10008000DF010008DF010008DF010008DF010008D0
:10009000DF010008DF010008DF010008DF010008C0
:1000A000DF010008DF010008DF010008DF010008B0
:1000B000DF010008DF010008DF010008DF010008A0
:1000C000DF010008DF010008DF010008DF01000890
:1000D000DF010008DF010008DF010008DF01000880
:1000E000DF010008DF010008DF010008DF01000870
:1000F000DF010008DF010008DF010008DF01000860
:10010000DF010008DF010008DF010008DF0100084F
:10011000DF010008DF010008DF010008DF0100083F
:10012000DF010008DF010008DF010008DF0100082F
:1001300000000000DF010008DF010008DF01000807
:10014000DF01000800F002F800F02CF80AA090E8A7
:10015000000C82448344AAF10107DA4501D100F082
:1001600021F8AFF2090EBAE80F0013F0010F18BF23
:10017000FB1A43F0010318471C0C00002C0C000074
:100180000023002400250026103A28BF78C1FBD8A0
:10019000520728BF30C148BF0B6070471FB51FBD55
:1001A00010B510BD00F031F81146FFF7F7FF00F071
:1001B000CFFC00F04FF803B4FFF7F2FF03BC00F0F0
:1001C00057F800000948804709480047FEE7FEE766
:1001D000FEE7FEE7FEE7FEE7FEE7FEE7FEE7FEE7F7
:1001E00004480549054A064B7047000015080008F9
:1001F0004501000860000020600600206002002029
:1002000060020020704770477047754600F02CF878
:10021000AE4605006946534620F00700854618B0F3
:1002200020B5FFF7DDFFBDE820404FF000064FF09E
:1002300000074FF000084FF0000BAC46ACE8C009D7
:10024000ACE8C009ACE8C009ACE8C00921F007017E
:100250008D46704710B50446AFF300802046BDE8D8
:100260001040FFF7A8BF00000048704700000020C2
:1002700001491820ABBEFEE72600020070470000CF
:1002800080B500F0C7FC00F0D9FC00F00BF832207C
:1002900000F012F800F0C8FC4FF4FA7000F00CF80F
:1002A00080BD000080B541F20040C4F201004FF46F
:1002B000006100F025F980BD82B00190002000901F
:1002C000FFE700980199884208D2FFE700980130C3
:1002D0000090FFE7009801300090F2E702B070470D
:1002E00087B0069005910598C07800F00F00039044
:1002F0000598C0780006002806D5FFE705988178A4
:10030000039808430390FFE705980078002848D039
:10031000FFE706980068029000208DF81300012086
:100320000090FFE79DF81300072836DCFFE70598EB
:1003300000880099084226D0FFE79DF8130080004E
:10034000019001990F2000FA01F102988843029070
:100350000398019900FA01F1029808430290059868
:10036000C078282804D1FFE700980699486109E081
:100370000598C078482804D1FFE7009806990861DD
:10038000FFE7FFE7FFE7FFE79DF8130001308DF877
:100390001300009840000090C4E702980699086096
:1003A000FFE7059841780020B0EB012F4CD0FFE724
:1003B00006984068029008208DF813004FF4807072
:1003C0000090FFE79DF813000F2839DCFFE7059840
:1003D00000880099084229D0FFE79DF813106FF0BC
:1003E0001F0000EB8100019001990F2000FA01F13C
:1003F0000298884302900398019900FA01F102984B
:10040000084302900598C078282804D1FFE7009897
:100410000699486109E00598C078482804D1FFE7AB
:10042000009806990861FFE7FFE7FFE7FFE79DF8FF
:10043000130001308DF81300009840000090C1E7D0
:10044000029806994860FFE707B0704786B00590AC
:10045000059800F00F0004900598C0F30310039076
:100460009DF815000290BDF8160000F00F000190F5
:10047000019830B1FFE71C20C4F201000068009031
:1004800005E00420C4F2010000680090FFE7059930
:100490001820B0EB112F0CD1FFE7009820F070600E
:1004A00000900421C4F20101086820F07060086027
:1004B00004E0009840F070600090FFE70299039814
:1004C000884003900399009888430090029904980B
:1004D000884004900499009808430090019830B136
:1004E000FFE700981C21C4F20101086005E00098B4
:1004F0000421C4F201010860FFE706B07047000064
:1005000082B00190ADF80210BDF802000199486177
:1005100002B0704782B00190ADF80210BDF8020041
:100520000199086102B0704781B00090009A41F2D1
:100530001801C4F2020108681043086001B0704756
:1005400080B588B040F20670C0F60810049040F202
:100550000120C0F20340039000200290019000F0BF
:1005600049F8069041F20400C4F202000068C0F3AA
:10057000031101A8405C079006980799C8400590B0
:10058000059808B080BD000080B586B00590049144
:1005900040F20120C0F20340019000200090FFF7DC
:1005A000CFFF0390059880B1FFE741F20400C4F249
:1005B00002000068C0F302216846405C0290039884
:1005C0000299C84005990860FFE7049880B1FFE7E9
:1005D00041F20400C4F202000068C0F3C221684680
:1005E000405C029003980299C84004990860FFE7B4
:1005F00006B080BD84B041F20400C4F2020000687D
:1006000000F0030003900398009040B1FFE70098CA
:1006100001280AD0FFE7009802280CD03CE041F204
:100620000020C0F27A0003903CE041F20020C0F2CA
:100630007A00039036E041F20400C4F2020001683F
:10064000C1F38341023102910068C0F30040019080
:100650000198012817D1FFE7029841F20021C0F26A
:100660007A0148430390019841F20401C4F2020167
:100670000968C1F34041884204D1FFE7039840086C
:100680000390FFE707E0029840F60011C0F23D0139
:1006900048430390FFE705E041F20020C0F27A00F2
:1006A0000390FFE7039804B07047000080B582B064
:1006B000019000910199086800F441500860009B86
:1006C0005889198808435988084393F804C093F857
:1006D00005E0197A1A7B40EA0E0040EA0C00DB883C
:1006E00018431043084382B2019908681043086018
:1006F0000098C0890199086102B080BD81B0009066
:100700000099086840F04000086001B070470000A0
:1007100082B041F20001C4F20201086840F4803066
:10072000086000200190FFE70198000B04280FD813
:10073000FFE741F20000C4F202000068400CC0076D
:1007400008B1FFE704E0FFE7019801300190EBE713
:1007500041F20000C4F202000068400CC00700280B
:1007600051D0FFE742F20001C4F20201086840F0F4
:10077000100008600868022262F30200086041F27B
:100780000401C4F202010091086820F0F000086042
:10079000086820F4605008600868042262F30A20A8
:1007A0000860086840F4803008600868072262F337
:1007B0009540086041F20001C4F20201086840F06F
:1007C00080700860FFE741F20000C4F20200006898
:1007D000400EC00708B9FFE7F5E741F20401C4F293
:1007E00002010868022262F301000860FFE741F29B
:1007F0000400C4F202000068C0F38100022801D0A6
:10080000FFE7F4E7FFE702B07047000080B5FFF7AD
:100810007FFF80BD80B541F20002C4F20202106881
:1008200040F00100106041F20401C4F202010868C6
:100830000023CFF6FF031840086010684FF6FF73DF
:10084000CFF6F66318401060106820F48020106026
:10085000086820F4FE00086041F20801C4F20201B9
:100860004FF41F000860FFF7D1FF4EF60851CEF29B
:1008700000014FF00060086080BD000080B586B0C8
:100880004FF4165002900020ADF80C00ADF80E00A9
:10089000ADF810000C208DF8120043F60000C4F2F1
:1008A0000100019002A900F00BF8019800F07EF819
:1008B000019800F08FF8019800F082F806B080BD32
:1008C00080B586B0059004910598C06803900398A0
:1008D0004EF6F311084003900499887A0A89104370
:1008E0008988014303980843039003980599C860D9
:1008F00005980069039003984CF6FF710840039037
:100900000498C188039808430390039805990861E7
:1009100005984069039003984FF6FF410840039003
:1009200004988189039808430390039805994861C6
:10093000059843F60001C4F20101884205D1FFE7A2
:10094000002002A9FFF720FE04E002A80021FFF723
:100950001BFEFFE7029819214843049909688900A2
:10096000B0FBF1F00190019848F21F51C5F2EB1174
:10097000A0FB01026FF00F0000EA52000390019B00
:1009800003980009642200FB12300090009A322084
:1009900000EB0210A0FB0110C0F3431103980843C1
:1009A000039003980599886006B080BD81B00090DF
:1009B0000099C86840F40050C86001B0704700005A
:1009C00081B000900099C86840F00400C86001B090
:1009D0007047000081B000900099C86840F008009E
:1009E000C86001B07047000080B584B0039043F246
:1009F0000000C4F201000290112100F097F9642078
:100A00000190FFF759FC0298412100F08FF90198FD
:100A1000FFF752FC02980121009100F087F901983C
:100A2000FFF74AFC02980399097800F07FF90198D2
:100A3000FFF742FC0298422100F078F90198FFF795
:100A40003BFC0099029800F071F90198FFF734FC23
:100A500002980399497800F069F90198FFF72CFC96
:100A60000298432100F062F90198FFF725FC0099F4
:100A7000029800F05BF90198FFF71EFC02980399B9
:100A8000897800F053F90198FFF716FC0298442189
:100A900000F04CF90198FFF70FFC0099029800F064
:100AA00045F90198FFF708FC02980399C97800F00E
:100AB0003DF90198FFF700FC0298102100F036F98B
:100AC00004B080BD80B582B04020FFF72DFD6020CE
:100AD000ADF8040001208DF8060080208DF8070095
:100AE00041F60000C4F2010001A9FFF7F9FB02B0D2
:100AF00080BD000080B584B004200090FFF714FD95
:100B00004FF48040FFF710FD40F21130FFF79EFCDC
:100B10004FF40070ADF80C0001208DF80E00882015
:100B20008DF80F0040F60000C4F20100019003A907
:100B30000291FFF7D5FB009A019802994FF4806368
:100B4000ADF80C308DF80F20FFF7CAFB04B080BD64
:100B500080B58AB0002009908DF816008DF8170036
:100B600001218DF818108DF81900FFF7ABFFFFF782
:100B7000C1FFFFF783FE00F089F8FFF781FB40F625
:100B80008151C0F6000143F60000C4F2010001905B
:100B900000F05EF852208DF80F0008208DF810004C
:100BA00032208DF8110003208DF812000DF10F0096
:100BB000FFF71AFF019840F67451C0F6000100F0EB
:100BC00047F8FFE743F20800C4F201000068C007DD
:100BD000C0B1FFE743F20C00C4F2010000689DF8C9
:100BE0000A2003A988549DF80A0001308DF80A00F4
:100BF0009DF80A00032804D1FFE700208DF80A00C1
:100C0000FFE7FFE743F60000C4F2010003A900F08C
:100C10001FF8D7E780B541F20040C4F201004FF45D
:100C20008071FFF777FC80BD80B541F20040C4F2CF
:100C300001004FF40071FFF763FC80BD80B541F205
:100C40000040C4F201004FF40071FFF763FC80BD67
:100C500080B584B00390029100208DF80700FFE773
:100C600002989DF80710405C68B1FFE7039802996D
:100C70009DF80720895C00F06BF89DF807000130B3
:100C80008DF80700ECE704B080BD000080B58AB0A5
:100C900004200090FFF748FC4FF48050FFF744FC1D
:100CA00088208DF82700A020ADF8240001200190B5
:100CB0008DF8260040F60000C4F20100029009A958
:100CC0000391FFF70DFB009B019A029803998DF8A1
:100CD00027304023ADF824308DF82620FFF700FBA5
:100CE0000020ADF81E004FF48271ADF81410ADF87D
:100CF00016008DF819008DF818004FF40071ADF84A
:100D00001A1038218DF820108DF81C000720ADF83E
:100D1000220043F20000C4F20100049005A9FFF78D
:100D2000C5FC0498FFF7EAFC0AB080BD82B00190D0
:100D30008DF80310FFE7019880688007002801D430
:100D4000FFE7F8E79DF803000199C86002B070471B
:100D500082B001908DF80310FFE70198006840060B
:100D6000002801D4FFE7F8E79DF8030001994860E7
:100D700002B07047696E69742041444331323832A1
:100D80000048656C6C6F20616D70333266313033B2
:100D900000000000A40D0008000000206006000014
:040DA00080010008C6
:0400000508000145A9
:00000001FF
